:100000000C9481000C94A9000C94A9000C94A900F4
:100010000C94A9000C94A9000C94A9000C94A900BC
:100020000C94A9000C94A9000C94A9000C94A900AC
:100030000C94A9000C94A9000C94A9000C94A9009C
:100040000C94A9000C94A9000C94A9000C94A9008C
:100050000C94A9000C94A9000C94A9000C94A9007C
:100060000C94A9000C94A90008000000BE92244939
:10007000123EABAAAA2ABECDCCCC4C3E00000080DA
:10008000BEABAAAAAA3E00000000BF000000803F4D
:100090000000000000084178D3BB4387D1133D190D
:1000A0000E3CC3BD4282AD2B3E68EC8276BED98F3A
:1000B000E1A93E4C80EFFFBE01C4FF7F3F0000007E
:1000C000000000000000240027002A0000000000BB
:1000D000250028002B000404040404040404020284
:1000E00002020202030303030303010204081020B7
:1000F0004080010204081020010204081020B5010C
:10010000B40111241FBECFEFD8E0DEBFCDBF11E098
:10011000A0E0B1E0EAE3FDE002C005900D92AC334F
:10012000B107D9F721E0ACE3B1E001C01D92A536DB
:10013000B207E1F710E0C0E8D0E004C02197FE016B
:100140000E948A06CF37D107C9F70E9448020C9453
:10015000A3020C94000090E0FC01E651FF4F2491B3
:10016000FC01EA52FF4FE491F0E0EE0FFF1FE45371
:10017000FF4FA591B491611105C08C91E22FE095DC
:10018000E82302C0EC91E22BEC930895CF93DF9328
:100190001F92CDB7DEB7FC01DB012D913C912536D6
:1001A000310540F42135310538F42D33310530F473
:1001B00090E005C094E603C092E301C09EE19983FC
:1001C00084819581009751F0DC01ED91FC910190C3
:1001D000F081E02DBE016F5F7F4F09950F90DF9199
:1001E000CF910895CF93DF93FC01DB019C9199237C
:1001F000C9F0C281D3819F3558F42E81299FC00157
:10020000112464E670E00E9462066983261B2A833B
:100210000480F581E02D8081811111C081E080830F
:1002200061E008C00480F581E02D8081882339F0E9
:10023000108260E08181DF91CF910C94AB00DF915F
:10024000CF91089508950895089508950895089503
:10025000089508950E94D303CF92DF92EF92FF9208
:100260000F931F93CF93DF9300D0CDB7DEB78C01F0
:10027000DB016D917C9180E090E00E94E6049B019F
:10028000AC0160E070EC8FE794E40E94450420E04C
:1002900030E040E85FE30E94D8039B01AC0160E0DE
:1002A00070E48CE196E40E94450420E030E44CE1E7
:1002B00056E40E9445040E947C056B017C01F80114
:1002C00046815781BA01550F880B990B0E94E804AB
:1002D0009B01AC01C701B6010E9445042FE03FEC31
:1002E0004BE55BE30E94D9039B01AC0160E070E049
:1002F00080E89FE30E94450423E333E948E853E4A0
:100300000E94D8030E94B7047A836983D8011496A7
:100310008D919C911597009751F0DC01ED91FC9126
:100320000190F081E02DBE016F5F7F4F09950F9026
:100330000F90DF91CF911F910F91FF90EF90DF9081
:10034000CF9008950C943B030C943B030C943B0317
:1003500002970C94A6010C943B0302970C94AB01FA
:100360000C943B030C943B03089510925E01109291
:100370005D0188E391E090935C0180935B0185E1EE
:1003800090E09093600180935F0110925801109269
:10039000570186E291E0909354018093530180E3EA
:1003A00091E090935601809355018DE89FE09093E2
:1003B0005A018093590110925201109251018AE022
:1003C00091E090934E0180934D0184E191E09093F0
:1003D000500180934F0110924A018AE090E090937F
:1003E0004C0180934B01E4EFF0E02491E0EEF0E06B
:1003F0008491882399F090E0880F991FFC01EE53B7
:10040000FF4FA591B491FC01E453FF4F8591949166
:100410008FB7F894EC91E22BEC938FBF10924A01C6
:1004200060E080914B010E94AB001092430110925A
:10043000480188E28093490180EC8AB91BB8E091B9
:100440004601F09147018091450180832091490147
:100450003AE0239FC001112464E670E00E94620626
:1004600060934401261B209345018CE191E0909319
:100470003E0180933D0183E491E09093400180939D
:100480003F018AE491E090934201809341010895F5
:10049000F8941092B0001092B1008EEF8093B200E9
:1004A00017BA1092700081E08093B1007894809127
:1004B0005D0190915E01892B31F483E591E0909389
:1004C0005E0180935D018091570190915801892BC5
:1004D00031F48DE491E0909358018093570180911D
:1004E000510190915201892B31F48DE391E0909369
:1004F00052018093510191E020ECE0913F01F09195
:1005000040015581A381B4813C9180913C0140918F
:10051000B2004817E1F38F5F80933C01482F451BE1
:10052000431798F33081332331F010821BB8A38135
:10053000B481328105C090832BB9A381B48131810C
:100540003C938583DACFF8940C949006CF93DF9395
:100550008230910510F482E090E0E0916301F09127
:10056000640120E030E0C0E0D0E0309711F140813C
:10057000518148175907C0F04817590761F4828123
:100580009381209719F09B838A832BC090936401F9
:100590008093630126C02115310519F042175307D6
:1005A00018F49A01BE01DF01EF010280F381E02D12
:1005B000DCCF2115310509F1281B390B2430310519
:1005C00090F412968D919C9113976115710521F00D
:1005D000FB019383828304C0909364018093630141
:1005E000FD01329644C0FD01E20FF31F8193919308
:1005F000225031092D933C933AC0209161013091F2
:100600006201232B41F420910201309103013093C8
:1006100062012093610120910001309101012115B7
:10062000310541F42DB73EB74091040150910501C9
:10063000241B350BE0916101F0916201E217F30791
:10064000A0F42E1B3F0B2817390778F0AC014E5F42
:100650005F4F2417350748F04E0F5F1F509362011C
:10066000409361018193919302C0E0E0F0E0CF01FB
:10067000DF91CF9108950F931F93CF93DF9300974E
:1006800009F48CC0FC01329713821282009163013D
:10069000109164010115110581F420813181820FCF
:1006A000931F20916101309162012817390779F574
:1006B000F0936201E093610171C0D80140E050E025
:1006C000AE17BF0750F412962D913C911397AD01D0
:1006D0002115310509F1D901F3CF9D01DA013383E9
:1006E000228360817181860F971F8217930769F4B7
:1006F000EC0128813981260F371F2E5F3F4F318350
:1007000020838A819B8193838283452B29F4F093F4
:100710006401E093630142C01396FC93EE93129739
:10072000ED01499159919E01240F351FE217F307FE
:1007300071F480819181840F951F029611969C938C
:100740008E938281938113969C938E931297E0E00F
:10075000F0E0D80112968D919C911397009719F0B3
:10076000F8018C01F6CF8D919C9198012E5F3F4F3F
:10077000820F931F20916101309162012817390780
:1007800069F4309729F4109264011092630102C059
:10079000138212821093620100936101DF91CF9165
:1007A0001F910F91089581E090E0F8940C949006C9
:1007B0005058BB27AA270E94F0030C943A050E94C8
:1007C0002C0538F00E94330520F039F49F3F19F4CE
:1007D00026F40C9429050EF4E095E7FB0C94230510
:1007E000E92F0E944B0558F3BA1762077307840775
:1007F000950720F079F4A6F50C946D050EF4E095BC
:100800000B2EBA2FA02D0B01B90190010C01CA01CA
:10081000A0011124FF27591B99F0593F50F4503E75
:1008200068F11A16F040A22F232F342F4427585F67
:10083000F3CF469537952795A795F0405395C9F77F
:100840007EF41F16BA0B620B730B840BBAF0915037
:10085000A1F0FF0FBB1F661F771F881FC2F70EC0D6
:10086000BA0F621F731F841F48F4879577956795A9
:10087000B795F7959E3F08F0B0CF9395880F08F095
:100880009927EE0F9795879508950E9459040C9427
:100890003A050E94330558F00E942C0540F029F4D7
:1008A0005F3F29F00C94230551110C946E050C94B4
:1008B00029050E944B0568F39923B1F3552391F361
:1008C000951B550BBB27AA2762177307840738F0BF
:1008D0009F5F5F4F220F331F441FAA1FA9F335D01C
:1008E0000E2E3AF0E0E832D091505040E695001CD0
:1008F000CAF72BD0FE2F29D0660F771F881FBB1F8A
:10090000261737074807AB07B0E809F0BB0B802D67
:10091000BF01FF2793585F4F3AF09E3F510578F093
:100920000C9423050C946E055F3FE4F3983ED4F3DA
:10093000869577956795B795F7959F5FC9F7880F67
:10094000911D9695879597F90895E1E0660F771FB9
:10095000881FBB1F621773078407BA0720F0621B4A
:10096000730B840BBA0BEE1F88F7E09508950E9475
:10097000530588F09F5798F0B92F9927B751B0F0D9
:10098000E1F0660F771F881F991F1AF0BA95C9F713
:1009900014C0B13091F00E946D05B1E008950C943F
:1009A0006D05672F782F8827B85F39F0B93FCCF3F2
:1009B000869577956795B395D9F73EF49095809590
:1009C000709561957F4F8F4F9F4F0895E89409C0B0
:1009D00097FB3EF490958095709561957F4F8F4F72
:1009E0009F4F9923A9F0F92F96E9BB279395F69588
:1009F000879577956795B795F111F8CFFAF4BB0F06
:100A000011F460FF1BC06F5F7F4F8F4F9F4F16C069
:100A1000882311F096E911C0772321F09EE8872FF3
:100A2000762F05C0662371F096E8862F70E060E0AF
:100A30002AF09A95660F771F881FDAF7880F969528
:100A4000879597F9089597F99F6780E870E060E0CF
:100A500008959FEF80EC089500240A941616170657
:100A600018060906089500240A941216130614069F
:100A700005060895092E0394000C11F4882352F002
:100A8000BB0F40F4BF2B11F460FF04C06F5F7F4FBA
:100A90008F4F9F4F089557FD9058440F551F59F0A1
:100AA0005F3F71F04795880F97FB991F61F09F3F5B
:100AB00079F087950895121613061406551FF2CF84
:100AC0004695F1DF08C0161617061806991FF1CFD4
:100AD00086957105610508940895E894BB276627FB
:100AE0007727CB0197F9089516F00C942D060C94F6
:100AF000290568940C9423050E945305A8F39923B3
:100B0000C1F3AEF3DF93CF931F930F93FF92C92FDF
:100B1000DD2788232AF02197660F771F881FDAF7D1
:100B200020E030E040E85FEB9FE3883920F0803E32
:100B300038F021968F770E94D903E8E6F0E004C0F0
:100B40000E94D903E5E9F0E00E943B068B01BE015B
:100B5000EC01FB2E6F5771097595771F880B990B68
:100B60000E94E80428E132E741E35FE30E94D305F5
:100B7000AF2D9801AE01FF900F911F91CF91DF91A2
:100B80000E94F0030C943A050E942C0538F00E9454
:100B9000330520F0952311F00C9423050C942905BE
:100BA00011240C946E050E944B0570F3959FC1F3C0
:100BB000950F50E0551F629FF001729FBB27F00D0B
:100BC000B11D639FAA27F00DB11DAA1F649F662760
:100BD000B00DA11D661F829F2227B00DA11D621FAF
:100BE000739FB00DA11D621F839FA00D611D221F69
:100BF000749F3327A00D611D231F849F600D211D4D
:100C0000822F762F6A2F11249F5750409AF0F1F0CF
:100C100088234AF0EE0FFF1FBB1F661F771F881F38
:100C200091505040A9F79E3F510580F00C94230548
:100C30000C946E055F3FE4F3983ED4F38695779568
:100C40006795B795F795E7959F5FC1F7FE2B880FDE
:100C5000911D9695879597F908959F3F31F0915092
:100C600020F4879577956795B795880F911D969590
:100C7000879597F90895DF93CF931F930F93FF9272
:100C8000EF92DF927B018C01689406C0DA2EEF01AF
:100C90000E94D305FE01E894A591259135914591D7
:100CA0005591A6F3EF010E94F003FE019701A80100
:100CB000DA9469F7DF90EF90FF900F911F91CF9139
:100CC000DF91089597FB072E16F4009407D077FD67
:100CD00009D00E94760607FC05D03EF490958195D8
:100CE0009F4F0895709561957F4F0895AA1BBB1B78
:100CF00051E107C0AA1FBB1FA617B70710F0A61B1C
:100D0000B70B881F991F5A95A9F780959095BC013C
:100D1000CD010895EE0FFF1F0590F491E02D099489
:100D200010E0C0E8D0E004C0FE010E948A062196CF
:0A0D3000C138D107C9F7F894FFCFCE
:100D3A0000006501200000000000C6002601AB018A
:100D4A00FEFF00002501AD0100000000F2002701AE
:100D5A00B001000000002C012401A601FEFF0000E2
:0C0D6A002301A801000000002201A401E8
:00000001FF
